{
  "contractName": "ProofOfExistence2",
  "abi": [
    {
      "constant": false,
      "inputs": [
        {
          "name": "proof",
          "type": "bytes32"
        }
      ],
      "name": "storeProof",
      "outputs": [],
      "payable": false,
      "stateMutability": "nonpayable",
      "type": "function"
    },
    {
      "constant": false,
      "inputs": [
        {
          "name": "document",
          "type": "string"
        }
      ],
      "name": "notarize",
      "outputs": [],
      "payable": false,
      "stateMutability": "nonpayable",
      "type": "function"
    },
    {
      "constant": true,
      "inputs": [
        {
          "name": "document",
          "type": "string"
        }
      ],
      "name": "proofFor",
      "outputs": [
        {
          "name": "",
          "type": "bytes32"
        }
      ],
      "payable": false,
      "stateMutability": "pure",
      "type": "function"
    },
    {
      "constant": true,
      "inputs": [
        {
          "name": "document",
          "type": "string"
        }
      ],
      "name": "checkDocument",
      "outputs": [
        {
          "name": "",
          "type": "bool"
        }
      ],
      "payable": false,
      "stateMutability": "view",
      "type": "function"
    }
  ],
  "bytecode": "0x608060405234801561001057600080fd5b506104ac806100206000396000f3fe608060405234801561001057600080fd5b506004361061004c5760003560e01c806353fb9233146100515780637183616c146101245780638952877b1461019d578063f6c1acdf146101cb575b600080fd5b61010a6004803603602081101561006757600080fd5b810190808035906020019064010000000081111561008457600080fd5b82018360208201111561009657600080fd5b803590602001918460018302840111640100000000831117156100b857600080fd5b91908080601f016020809104026020016040519081016040528093929190818152602001838380828437600081840152601f19601f82011690508083019250505050505050919291929050505061029a565b604051808215151515815260200191505060405180910390f35b61019b6004803603602081101561013a57600080fd5b810190808035906020019064010000000081111561015757600080fd5b82018360208201111561016957600080fd5b8035906020019184600183028401116401000000008311171561018b57600080fd5b90919293919293905050506102b9565b005b6101c9600480360360208110156101b357600080fd5b8101908080359060200190929190505050610318565b005b610284600480360360208110156101e157600080fd5b81019080803590602001906401000000008111156101fe57600080fd5b82018360208201111561021057600080fd5b8035906020019184600183028401116401000000008311171561023257600080fd5b91908080601f016020809104026020016040519081016040528093929190818152602001838380828437600081840152601f19601f820116905080830192505050505050509192919290505050610346565b6040518082815260200191505060405180910390f35b6000806102a683610346565b90506102b181610457565b915050919050565b600061030883838080601f016020809104026020016040519081016040528093929190818152602001838380828437600081840152601f19601f82011690508083019250505050505050610346565b905061031381610318565b505050565b600160008083815260200190815260200160002060006101000a81548160ff02191690831515021790555050565b60006002826040516020018082805190602001908083835b60208310610381578051825260208201915060208101905060208303925061035e565b6001836020036101000a0380198251168184511680821785525050505050509050019150506040516020818303038152906040526040518082805190602001908083835b602083106103e857805182526020820191506020810190506020830392506103c5565b6001836020036101000a038019825116818451168082178552505050505050905001915050602060405180830381855afa15801561042a573d6000803e3d6000fd5b5050506040513d602081101561043f57600080fd5b81019080805190602001909291905050509050919050565b600080600083815260200190815260200160002060009054906101000a900460ff16905091905056fea165627a7a7230582028c22ef6dd9e482b89107b6473bc5c55b80cdb76dafb688653c8df5d26eae9330029",
  "source": "pragma solidity ^0.5.0;\n\n\ncontract ProofOfExistence2 {\n\n  mapping(bytes32 => bool) private proofs;\n\n  function storeProof(bytes32 proof) public {\n    proofs[proof] = true;\n  }\n\n  function notarize(string calldata document) external {\n    bytes32 proof = proofFor(document);\n    storeProof(proof);\n  }\n\n  function proofFor(string memory document) public pure returns(bytes32) {\n    return sha256(abi.encodePacked(document));\n  }\n\n  function checkDocument(string memory document) public view returns(bool) {\n    bytes32 proof = proofFor(document);\n    return hasProof(proof);\n  }\n\n  function hasProof(bytes32 proof) internal view returns(bool) {\n    return proofs[proof];\n  }\n}\n",
  "sourcePath": "/Users/andrewdeal/Projects/poe-example/contracts/ProofOfExistence2.sol",
  "compiler": {
    "name": "solc",
    "version": "0.5.8+commit.23d335f2.Emscripten.clang"
  },
  "schemaVersion": "3.0.16",
  "updatedAt": "2019-10-13T20:46:20.907Z",
  "devdoc": {
    "methods": {}
  },
  "userdoc": {
    "methods": {}
  }
}